{
  "contractName": "CampaignFactory",
  "abi": [
    {
      "inputs": [
        {
          "internalType": "uint256",
          "name": "",
          "type": "uint256"
        }
      ],
      "name": "deployedCampaings",
      "outputs": [
        {
          "internalType": "address",
          "name": "",
          "type": "address"
        }
      ],
      "stateMutability": "view",
      "type": "function"
    },
    {
      "inputs": [
        {
          "internalType": "uint256",
          "name": "_minimum",
          "type": "uint256"
        }
      ],
      "name": "createCampaign",
      "outputs": [],
      "stateMutability": "nonpayable",
      "type": "function"
    },
    {
      "inputs": [],
      "name": "getDeployedCampaign",
      "outputs": [
        {
          "internalType": "address[]",
          "name": "",
          "type": "address[]"
        }
      ],
      "stateMutability": "view",
      "type": "function"
    }
  ],
  "bytecode": "0x608060405234801561001057600080fd5b50611699806100206000396000f3fe608060405234801561001057600080fd5b50600436106100415760003560e01c80631518a12e146100465780635eac000714610076578063a3303a7514610094575b600080fd5b610060600480360381019061005b9190610266565b6100b0565b60405161006d91906102d4565b60405180910390f35b61007e6100ef565b60405161008b91906103ad565b60405180910390f35b6100ae60048036038101906100a99190610266565b61017d565b005b600081815481106100c057600080fd5b906000526020600020016000915054906101000a900473ffffffffffffffffffffffffffffffffffffffff1681565b6060600080548060200260200160405190810160405280929190818152602001828054801561017357602002820191906000526020600020905b8160009054906101000a900473ffffffffffffffffffffffffffffffffffffffff1673ffffffffffffffffffffffffffffffffffffffff1681526020019060010190808311610129575b5050505050905090565b6000813360405161018d9061021e565b6101989291906103de565b604051809103906000f0801580156101b4573d6000803e3d6000fd5b5090506000819080600181540180825580915050600190039060005260206000200160009091909190916101000a81548173ffffffffffffffffffffffffffffffffffffffff021916908373ffffffffffffffffffffffffffffffffffffffff1602179055505050565b61125c8061040883390190565b600080fd5b6000819050919050565b61024381610230565b811461024e57600080fd5b50565b6000813590506102608161023a565b92915050565b60006020828403121561027c5761027b61022b565b5b600061028a84828501610251565b91505092915050565b600073ffffffffffffffffffffffffffffffffffffffff82169050919050565b60006102be82610293565b9050919050565b6102ce816102b3565b82525050565b60006020820190506102e960008301846102c5565b92915050565b600081519050919050565b600082825260208201905092915050565b6000819050602082019050919050565b610324816102b3565b82525050565b6000610336838361031b565b60208301905092915050565b6000602082019050919050565b600061035a826102ef565b61036481856102fa565b935061036f8361030b565b8060005b838110156103a0578151610387888261032a565b975061039283610342565b925050600181019050610373565b5085935050505092915050565b600060208201905081810360008301526103c7818461034f565b905092915050565b6103d881610230565b82525050565b60006040820190506103f360008301856103cf565b61040060208301846102c5565b939250505056fe608060405260016003553480156200001657600080fd5b506040516200125c3803806200125c83398181016040528101906200003c919062000130565b806000806101000a81548173ffffffffffffffffffffffffffffffffffffffff021916908373ffffffffffffffffffffffffffffffffffffffff16021790555081600281905550505062000177565b600080fd5b6000819050919050565b620000a58162000090565b8114620000b157600080fd5b50565b600081519050620000c5816200009a565b92915050565b600073ffffffffffffffffffffffffffffffffffffffff82169050919050565b6000620000f882620000cb565b9050919050565b6200010a81620000eb565b81146200011657600080fd5b50565b6000815190506200012a81620000ff565b92915050565b600080604083850312156200014a57620001496200008b565b5b60006200015a85828601620000b4565b92505060206200016d8582860162000119565b9150509250929050565b6110d580620001876000396000f3fe60806040526004361061009c5760003560e01c806381d12c581161006457806381d12c581461018c57806382fde093146101cd5780638a9cfd55146101f8578063937e09b114610221578063d7bb99ba1461024c578063d7d1bbdb146102565761009c565b806303441006146100a15780630a144391146100ca5780633410452a146101075780634051ddac14610132578063481c6a7514610161575b600080fd5b3480156100ad57600080fd5b506100c860048036038101906100c3919061087a565b61027f565b005b3480156100d657600080fd5b506100f160048036038101906100ec9190610905565b6103b8565b6040516100fe919061094d565b60405180910390f35b34801561011357600080fd5b5061011c6103d8565b6040516101299190610977565b60405180910390f35b34801561013e57600080fd5b506101476103e2565b6040516101589594939291906109a1565b60405180910390f35b34801561016d57600080fd5b50610176610426565b60405161018391906109f4565b60405180910390f35b34801561019857600080fd5b506101b360048036038101906101ae919061087a565b61044a565b6040516101c4959493929190610ac0565b60405180910390f35b3480156101d957600080fd5b506101e2610535565b6040516101ef9190610977565b60405180910390f35b34801561020457600080fd5b5061021f600480360381019061021a9190610c7b565b61053b565b005b34801561022d57600080fd5b5061023661064f565b6040516102439190610977565b60405180910390f35b610254610655565b005b34801561026257600080fd5b5061027d6004803603810190610278919061087a565b6106d6565b005b60008054906101000a900473ffffffffffffffffffffffffffffffffffffffff1673ffffffffffffffffffffffffffffffffffffffff163373ffffffffffffffffffffffffffffffffffffffff16146102d757600080fd5b60006005600083815260200190815260200160002090508060020160149054906101000a900460ff161561030a57600080fd5b60026001546103199190610d48565b81600301541161032857600080fd5b8060020160009054906101000a900473ffffffffffffffffffffffffffffffffffffffff1673ffffffffffffffffffffffffffffffffffffffff166108fc82600101549081150290604051600060405180830381858888f19350505050158015610396573d6000803e3d6000fd5b5060018160020160146101000a81548160ff0219169083151502179055505050565b60046020528060005260406000206000915054906101000a900460ff1681565b6000600354905090565b60008060008060006002544760035460015460008054906101000a900473ffffffffffffffffffffffffffffffffffffffff16945094509450945094509091929394565b60008054906101000a900473ffffffffffffffffffffffffffffffffffffffff1681565b600560205280600052604060002060009150905080600001805461046d90610da8565b80601f016020809104026020016040519081016040528092919081815260200182805461049990610da8565b80156104e65780601f106104bb576101008083540402835291602001916104e6565b820191906000526020600020905b8154815290600101906020018083116104c957829003601f168201915b5050505050908060010154908060020160009054906101000a900473ffffffffffffffffffffffffffffffffffffffff16908060020160149054906101000a900460ff16908060030154905085565b60015481565b60008054906101000a900473ffffffffffffffffffffffffffffffffffffffff1673ffffffffffffffffffffffffffffffffffffffff163373ffffffffffffffffffffffffffffffffffffffff161461059357600080fd5b60006005600060035481526020019081526020016000209050600360008154809291906105bf90610dd9565b9190505550838160000190816105d59190610fcd565b50828160010181905550818160020160006101000a81548173ffffffffffffffffffffffffffffffffffffffff021916908373ffffffffffffffffffffffffffffffffffffffff16021790555060008160020160146101000a81548160ff0219169083151502179055506000816003018190555050505050565b60025481565b60025434101561066457600080fd5b6001600460003373ffffffffffffffffffffffffffffffffffffffff1673ffffffffffffffffffffffffffffffffffffffff16815260200190815260200160002060006101000a81548160ff021916908315150217905550600160008154809291906106cf90610dd9565b9190505550565b60006005600083815260200190815260200160002090508060020160149054906101000a900460ff161561070957600080fd5b600460003373ffffffffffffffffffffffffffffffffffffffff1673ffffffffffffffffffffffffffffffffffffffff16815260200190815260200160002060009054906101000a900460ff1661075f57600080fd5b8060040160003373ffffffffffffffffffffffffffffffffffffffff1673ffffffffffffffffffffffffffffffffffffffff16815260200190815260200160002060009054906101000a900460ff16156107b857600080fd5b60018160040160003373ffffffffffffffffffffffffffffffffffffffff1673ffffffffffffffffffffffffffffffffffffffff16815260200190815260200160002060006101000a81548160ff02191690831515021790555080600301600081548092919061082790610dd9565b91905055505050565b6000604051905090565b600080fd5b600080fd5b6000819050919050565b61085781610844565b811461086257600080fd5b50565b6000813590506108748161084e565b92915050565b6000602082840312156108905761088f61083a565b5b600061089e84828501610865565b91505092915050565b600073ffffffffffffffffffffffffffffffffffffffff82169050919050565b60006108d2826108a7565b9050919050565b6108e2816108c7565b81146108ed57600080fd5b50565b6000813590506108ff816108d9565b92915050565b60006020828403121561091b5761091a61083a565b5b6000610929848285016108f0565b91505092915050565b60008115159050919050565b61094781610932565b82525050565b6000602082019050610962600083018461093e565b92915050565b61097181610844565b82525050565b600060208201905061098c6000830184610968565b92915050565b61099b816108c7565b82525050565b600060a0820190506109b66000830188610968565b6109c36020830187610968565b6109d06040830186610968565b6109dd6060830185610968565b6109ea6080830184610992565b9695505050505050565b6000602082019050610a096000830184610992565b92915050565b600081519050919050565b600082825260208201905092915050565b60005b83811015610a49578082015181840152602081019050610a2e565b60008484015250505050565b6000601f19601f8301169050919050565b6000610a7182610a0f565b610a7b8185610a1a565b9350610a8b818560208601610a2b565b610a9481610a55565b840191505092915050565b6000610aaa826108a7565b9050919050565b610aba81610a9f565b82525050565b600060a0820190508181036000830152610ada8188610a66565b9050610ae96020830187610968565b610af66040830186610ab1565b610b03606083018561093e565b610b106080830184610968565b9695505050505050565b600080fd5b600080fd5b7f4e487b7100000000000000000000000000000000000000000000000000000000600052604160045260246000fd5b610b5c82610a55565b810181811067ffffffffffffffff82111715610b7b57610b7a610b24565b5b80604052505050565b6000610b8e610830565b9050610b9a8282610b53565b919050565b600067ffffffffffffffff821115610bba57610bb9610b24565b5b610bc382610a55565b9050602081019050919050565b82818337600083830152505050565b6000610bf2610bed84610b9f565b610b84565b905082815260208101848484011115610c0e57610c0d610b1f565b5b610c19848285610bd0565b509392505050565b600082601f830112610c3657610c35610b1a565b5b8135610c46848260208601610bdf565b91505092915050565b610c5881610a9f565b8114610c6357600080fd5b50565b600081359050610c7581610c4f565b92915050565b600080600060608486031215610c9457610c9361083a565b5b600084013567ffffffffffffffff811115610cb257610cb161083f565b5b610cbe86828701610c21565b9350506020610ccf86828701610865565b9250506040610ce086828701610c66565b9150509250925092565b7f4e487b7100000000000000000000000000000000000000000000000000000000600052601260045260246000fd5b7f4e487b7100000000000000000000000000000000000000000000000000000000600052601160045260246000fd5b6000610d5382610844565b9150610d5e83610844565b925082610d6e57610d6d610cea565b5b828204905092915050565b7f4e487b7100000000000000000000000000000000000000000000000000000000600052602260045260246000fd5b60006002820490506001821680610dc057607f821691505b602082108103610dd357610dd2610d79565b5b50919050565b6000610de482610844565b91507fffffffffffffffffffffffffffffffffffffffffffffffffffffffffffffffff8203610e1657610e15610d19565b5b600182019050919050565b60008190508160005260206000209050919050565b60006020601f8301049050919050565b600082821b905092915050565b600060088302610e837fffffffffffffffffffffffffffffffffffffffffffffffffffffffffffffffff82610e46565b610e8d8683610e46565b95508019841693508086168417925050509392505050565b6000819050919050565b6000610eca610ec5610ec084610844565b610ea5565b610844565b9050919050565b6000819050919050565b610ee483610eaf565b610ef8610ef082610ed1565b848454610e53565b825550505050565b600090565b610f0d610f00565b610f18818484610edb565b505050565b5b81811015610f3c57610f31600082610f05565b600181019050610f1e565b5050565b601f821115610f8157610f5281610e21565b610f5b84610e36565b81016020851015610f6a578190505b610f7e610f7685610e36565b830182610f1d565b50505b505050565b600082821c905092915050565b6000610fa460001984600802610f86565b1980831691505092915050565b6000610fbd8383610f93565b9150826002028217905092915050565b610fd682610a0f565b67ffffffffffffffff811115610fef57610fee610b24565b5b610ff98254610da8565b611004828285610f40565b600060209050601f8311600181146110375760008415611025578287015190505b61102f8582610fb1565b865550611097565b601f19841661104586610e21565b60005b8281101561106d57848901518255600182019150602085019450602081019050611048565b8683101561108a5784890151611086601f891682610f93565b8355505b6001600288020188555050505b50505050505056fea26469706673582212207c674c3315d5f95b9f48bb037e325f54caf98f2a88dec64a2df877e80ff71dd264736f6c63430008110033a2646970667358221220b416b961e5eae7f48bbc85a4ec61919aba986fe5fac0012601e0415eaac0b55a64736f6c63430008110033",
  "immutableReferences": {},
  "source": "// SPDX-License-Identifier: GPL-3.0\r\n\r\npragma solidity >=0.7.0 <0.9.0;\r\n\r\ncontract CampaignFactory {\r\n    address[] public deployedCampaings;\r\n\r\n    function createCampaign(uint256 _minimum) public {\r\n        address newCampaign = address(new Campaign(_minimum, msg.sender));\r\n        deployedCampaings.push(newCampaign);\r\n    }\r\n\r\n    function getDeployedCampaign() public view returns (address[] memory) {\r\n        return deployedCampaings;\r\n    }\r\n}\r\n\r\ncontract Campaign {\r\n    struct Request {\r\n        string description;\r\n        uint256 value;\r\n        address payable recipient;\r\n        bool complete;\r\n        uint256 approvalCount;\r\n        mapping(address => bool) approvals;\r\n    }\r\n\r\n    address public manager;\r\n    uint256 public approversCount;\r\n    uint256 public minimumContribution;\r\n    uint256 nbRequests = 1;\r\n    mapping(address => bool) public approvers;\r\n    mapping(uint256 => Request) public requests;\r\n\r\n    modifier restricted() {\r\n        require(msg.sender == manager);\r\n        _;\r\n    }\r\n\r\n    constructor(uint256 _minimum, address _creator) {\r\n        manager = _creator;\r\n        minimumContribution = _minimum;\r\n    }\r\n\r\n    function contribute() public payable {\r\n        require(msg.value >= minimumContribution);\r\n\r\n        approvers[msg.sender] = true;\r\n        approversCount++;\r\n    }\r\n\r\n    function createRequest(\r\n        string memory _description,\r\n        uint256 _value,\r\n        address payable _recipient\r\n    ) public restricted {\r\n        Request storage newRequest = requests[nbRequests];\r\n        nbRequests++;\r\n\r\n        newRequest.description = _description;\r\n        newRequest.value = _value;\r\n        newRequest.recipient = _recipient;\r\n        newRequest.complete = false;\r\n        newRequest.approvalCount = 0;\r\n    }\r\n\r\n    function approveRequest(uint256 _index) public {\r\n        Request storage request = requests[_index];\r\n\r\n        require(!request.complete);\r\n        require(approvers[msg.sender]);\r\n        require(!request.approvals[msg.sender]);\r\n\r\n        request.approvals[msg.sender] = true;\r\n        request.approvalCount++;\r\n    }\r\n\r\n    function finalizeRequest(uint256 _index) public restricted {\r\n        Request storage request = requests[_index];\r\n\r\n        require(!request.complete);\r\n        require(request.approvalCount > (approversCount / 2));\r\n\r\n        request.recipient.transfer(request.value);\r\n        request.complete = true;\r\n    }\r\n\r\n    function getSummary()\r\n        public\r\n        view\r\n        returns (\r\n            uint256,\r\n            uint256,\r\n            uint256,\r\n            uint256,\r\n            address\r\n        )\r\n    {\r\n        return (\r\n            minimumContribution,\r\n            address(this).balance,\r\n            nbRequests,\r\n            approversCount,\r\n            manager\r\n        );\r\n    }\r\n\r\n    function getRequestsCount() public view returns (uint256) {\r\n        return nbRequests;\r\n    }\r\n}\r\n",
  "sourcePath": "D:\\SolidityFormation\\kickstart\\contracts\\Campaign.sol",
  "compiler": {
    "name": "solc",
    "version": "0.8.17+commit.8df45f5f.Emscripten.clang"
  },
  "schemaVersion": "3.4.11",
  "updatedAt": "2023-01-19T14:39:34.490Z",
  "devdoc": {
    "kind": "dev",
    "methods": {},
    "version": 1
  },
  "userdoc": {
    "kind": "user",
    "methods": {},
    "version": 1
  }
}